S01300004156525F53445F434152442E73726563B9
S11300000C942C200C944D200C944D200C944D20D9
S11300100C944D200C944D200C944D200C944D20A8
S11300200C944D200C944D200C944D200C944D2098
S11300300C944D200C944D200C944D200C944D2088
S11300400C944D200C944D200C944D200C944D2078
S11300500C944D200C94E2480C944D200C944D20AB
S11300600C944D200C944D200C944D200C944D2058
S11300700C944D200C944D200C944D200C944D2048
S11300800C944D200C944D200C944D200C944D2038
S11300900C944D200C944D200C944D200C944D2028
S11300A00C944D200C944D200C944D200C944D2018
S11300B00C944D200C944D200C944D200C944D2008
S11300C00C944D200C944D200C944D200C944D20F8
S11300D00C944D200C944D200C944D200C944D20E8
S11300E00C944D20B946C346CB46CE46D146D446A1
S11300F0D746DA46DD467D1D0100632C001E9601BD
S1130100A01E5A01001F0806101F0606201F08061D
S1130110301F0806401F0606511F0700591F521FB3
S11301205B1F541F5D1F561F5F1F601F0806701F53
S11301300E00BA1FBB1FC81FC91FCA1FCB1FDA1F5F
S1130140DB1FF81FF91FEA1FEB1FFA1FFB1F801F9D
S11301500806901F0806A01F0806B01F0400B81F59
S1130160B91FB21FBC1FCC1F0100C31FD01F020642
S1130170E01F0206E51F0100EC1FF21F0100FC1F37
S11301804E210100322170211002842101008321BB
S1130190D0241A05302C2F04602C0201672C060190
S11301A0752C0201802C6401002D260841FF1A03DE
S11301B0000061001A03E0001703F8000703FF00C2
S11301C001007801000130013201060139011001FA
S11301D04A012E017901060180014D00430281018B
S11301E082018201840184018601870187018901DA
S11301F08A018B018B018D018E018F019001910188
S1130200910193019401F6019601970198019801D7
S11302103D029B019C019D0120029F01A001A001C0
S1130220A201A201A401A401A601A701A701A90199
S1130230AA01AB01AC01AC01AE01AF01AF01B10148
S1130240B201B301B301B501B501B701B801B801F9
S1130250BA01BB01BC01BC01BE01F701C001C1016F
S1130260C201C301C401C501C401C701C801C7015A
S1130270CA01CB01CA01CD011001DD0101008E01CB
S1130280DE011201F3010300F101F401F401F801AC
S11302902801220212013A020900652C3B023B02AA
S11302A03D02662C3F0240024102410246020A011D
S11302B05302400081018601550289018A015802D6
S11302C08F015A0290015C025D025E025F0293019B
S11302D06102620294016402650266026702970188
S11302E096016A02622C6C026D026E029C0170021D
S11302F071029D01730274029F01760277027802F3
S113030079027A027B027C02642C7E027F02A601BF
S113031081028202A9018402850286028702AE015B
S11303204402B101B20145028D028E028F02900295
S11303309102B7017B030300FD03FE03FF03AC033B
S113034004008603880389038A03B1031103C203EB
S11303500200A303A303C4030803CC0303008C0318
S11303608E038F03D8031801F2030A00F903F30381
S1130370F403F503F603F703F703F903FA03FA03A7
S11303803004200350041007600422018A0436015B
S1130390C1040E01CF040100C004D004440161056E
S11303A026040000A7009881A8004E81B0008B812C
S11303B0B1007D81B4004C81B600F781D7007E8105
S11303C0F700808191039F839203A0839303A18309
S11303D09403A2839503A3839603A4839703A5831D
S11303E09803A6839903A7839A03A8839B03A983ED
S11303F09C03AA839D03AB839E03AC839F03AD83BD
S1130400A003AE83A103AF83A303B083A403B1838A
S1130410A503B283A603B383A703B483A803B58358
S1130420A903B683B103BF83B203C083B303C183FB
S1130430B403C283B503C383B603C483B703C583BC
S1130440B803C683B903C783BA03C883BB03C9838C
S1130450BC03CA83BD03CB83BE03CC83BF03CD835C
S1130460C003CE83C103CF83C303D083C403D1832A
S1130470C503D283C603D383C703D483C803D583F8
S1130480C903D683010446841004408411044184C2
S113049012044284130443841404448415044584DC
S11304A016044784170448841804498419044A84A8
S11304B01A044B841B044C841C044D841D044E8478
S11304C01E044F841F045084200451842104528448
S11304D02204538423045484240455842504568418
S11304E026045784270458842804598429045A84E8
S11304F02A045B842B045C842C045D842D045E84B8
S11305002E045F842F046084300470843104718469
S1130510320472843304738434047484350475841B
S113052036047784370478843804798439047A84E7
S11305303A047B843B047C843C047D843D047E84B7
S11305403E0480843F048184400482844104838483
S11305504204848443048584440486844504878453
S1130560460488844704898448048A8449048B8423
S11305704A048C844B048D844C048E844D048F84F3
S11305804E0490844F0491845104768410205D813C
S113059015205C8118206581192066811C206781E3
S11305A01D2068812020F5812120F6812520648189
S11305B0262063813020F18132208C8133208D818B
S11305C03B20A68103218E811621828721218487E5
S11305D02B21F08160215487612155876221568740
S11305E063215787642158876521598766215A8773
S11305F067215B8768215C8769215D879021A981D8
S11306009121AA819221A8819321AB81D221CB810E
S1130610D421CC810022CD810222DD810322CE812E
S11306200722DE810822B8810B22B9811122948726
S11306301A22E3811D22E5811E2287811F229887C9
S11306402022DA81252261812722C8812822C981BA
S11306502922BF812A22BE812B22E7812C22E88114
S11306602E229387342288813522E6813D22E4813B
S11306705222E081602282816122DF8166228581AB
S1130680672286816A22E1816B22E2818222BC8117
S11306908322BD818622BA818722BB81A522DB8188
S11306A0BF2299871223DC8160244087612441871B
S11306B062244287632443876424448765244587EE
S11306C066244687672447876824488769244987BE
S11306D06A244A876B244B876C244C876D244D878E
S11306E06E244E876F244F8770245087712451875E
S11306F0722452877324538700259F840125AA847A
S11307000225A0840325AB840C25A1840F25AC8489
S11307101025A2841325AD841425A4841725AF8441
S11307201825A3841B25AE841C25A5841D25BA8405
S11307302025B5842325B0842425A7842525BC84BD
S11307402825B7842B25B2842C25A6842F25B6848E
S11307503025BB843325B1843425A8843725B88457
S11307603825BD843B25B3843C25A9843F25B98421
S11307704225BE844B25B484A025A181A125A08156
S1130780B225A381B325A281BC25A581BD25A48161
S1130790C6259F81C7259E81CB259B81CE259D8122
S11307A0CF259C81EF25FC8105269A810626998117
S11307B040268A81422689816A26F4816D26F38146
S11307C06F26F28100304081013041810230428144
S11307D003305681053058810630598107305A81DB
S11307E008307181093072810A3073810B30748151
S11307F00C3075810D3076810E3077810F30788121
S11308001030798111307A811230A7811330AC8194
S113081014306B8115306C811D3080871F308187C7
S113082041309F824230A0824330A1824430A28270
S11308304530A3824630A4824730A5824830A68240
S11308404930A7824A30A8824B30A9824C30AA8210
S11308504D30AB824E30AC824F30AD825030AE82E0
S11308605130AF825230B0825330B1825430B282B0
S11308705530B3825630B4825730B5825830B68280
S11308805930B7825A30B8825B30B9825C30BA8250
S11308905D30BB825E30BC825F30BD826030BE8220
S11308A06130BF826230C0826330C1826430C282F0
S11308B06530C3826630C4826730C5826830C682C0
S11308C06930C7826A30C8826B30C9826C30CA8290
S11308D06D30CB826E30CC826F30CD827030CE8260
S11308E07130CF827230D0827330D1827430D28230
S11308F07530D3827630D4827730D5827830D68200
S11309007930D7827A30D8827B30D9827C30DA82CF
S11309107D30DB827E30DC827F30DD828030DE829F
S11309208130DF828230E0828330E1828430E2826F
S11309308530E3828630E4828730E5828830E6823F
S11309408930E7828A30E8828B30E9828C30EA820F
S11309508D30EB828E30EC828F30ED829030EE82DF
S11309609130EF829230F0829330F1829B304A8151
S11309709C304B819D3054819E305581A130408301
S1130980A2304183A3304283A4304383A5304483FF
S1130990A6304583A7304683A8304783A9304883CF
S11309A0AA304983AB304A83AC304B83AD304C839F
S11309B0AE304D83AF304E83B0304F83B13050836F
S11309C0B2305183B3305283B4305383B53054833F
S11309D0B6305583B7305683B8305783B93058830F
S11309E0BA305983BB305A83BC305B83BD305C83DF
S11309F0BE305D83BF305E83C0305F83C1306083AF
S1130A00C2306183C3306283C4306383C53064837E
S1130A10C6306583C7306683C8306783C93068834E
S1130A20CA306983CB306A83CC306B83CD306C831E
S1130A30CE306D83CF306E83D0306F83D1307083EE
S1130A40D2307183D3307283D4307383D5307483BE
S1130A50D6307583D7307683D8307783D93078838E
S1130A60DA307983DB307A83DC307B83DD307C835E
S1130A70DE307D83DF307E83E0308083E13081832C
S1130A80E2308283E3308383E4308483E5308583FA
S1130A90E6308683E7308783E8308883E9308983CA
S1130AA0EA308A83EB308B83EC308C83ED308D839A
S1130AB0EE308E83EF308F83F0309083F13091836A
S1130AC0F2309283F3309383F4309483F53095833A
S1130AD0F6309683FB304581FC305B81FD305281DA
S1130AE0FE30538131328A8732328B8739328C8798
S1130AF0A4328587A5328687A6328787A73288875E
S1130B00A8328987033365870D3369871433608777
S1130B10183363872233618723336B8726336A87CD
S1130B20273364872B336C87363366873B336E8772
S1130B3049335F874A336D874D3362875133678703
S1130B40573368877B337E877C338F877D338E87EB
S1130B507E338D878E3372878F3373879C336F8791
S1130B609D3370879E337187A1337587C43374872F
S1130B70CD338387004EEA88014E9A92034EB58E98
S1130B80074E9C96084EE48F094E4F8E0A4EE38F13
S1130B900B4EBA890D4E73950E4E5E97114E4E89CB
S1130BA0144E8E8A154EA198164EA290184E758B2F
S1130BB0194EB8951E4EE58F214EBC97264EC09512
S1130BC02A4EA2982D4E8692324EF88B384EDB8AEE
S1130BD0394E4F923B4EE58E3C4EA598434E54946D
S1130BE0454E768B4B4E56944D4EE1934E4EC18CF2
S1130BF04F4E5296564EA898574EE68F594EB3898B
S1130C005D4EE38B5E4EEE8C5F4EE796714E909791
S1130C10734EFB937E4EA38A804E548B864EB997B7
S1130C20884E5C97894E88918B4E968E8C4EF193AC
S1130C308E4EB098914E5D89924EDD8C944EDC8C34
S1130C40954EE488984E6A98994E69989B4EB18D5A
S1130C509C4E9F889E4EB198A14E5396A44EF08C04
S1130C60A54EE588A64E9296A84E9C8BAB4E9D8BC6
S1130C70AC4E9E8BAD4EE092AE4EBA97BA4E6C908F
S1130C80C04E598FC14E6D90C74E778BCA4EA18D01
S1130C90CB4EEE89CF4EA795D44E658ED54E648E3D
S1130CA0D64EBC91D84E7495D94EE590DD4E578101
S1130CB0E34EE391E44EDF97E54EC888EE4EBC89DF
S1130CC0F04EC28BF24E8792F64E8F8CFB4E4394BD
S1130CD0014FE98A0A4FC9880D4FDE8C0E4FEA8A0C
S1130CE00F4F9A95104FB094114F788B1A4FEF898C
S1130CF01D4F60932F4F8C94344FBA94364FE09726
S1130D00384F4C903A4F668E3C4F978E3D4FBE897C
S1130D10434FCF92464F4192474FC8984D4FCA8890
S1130D204E4FE1924F4F5A8F504FB28D514F4397D0
S1130D30534FCC91554FBD89574FC798594F5D9725
S1130D405B4FC5985C4FEC8D734FC089754FB99557
S1130D507C4FF18C7F4F678E834FA48A864FD29845
S1130D608B4FE1978D4F988E9B4F9F8B9D4FCB88D8
S1130D70A04FA08BA14FBF89AD4F9996AE4F8E95D2
S1130D80AF4FF28CB54F4E90B64FB597BF4FD69537
S1130D90C24F578CC34FA391C44FE289CA4F728F7D
S1130DA0D74FAD91DD4FDB95E14F4D90E34F9396D7
S1130DB0EE4F438FF34F6F94F54F5595F84FEE95E3
S1130DC0FA4FB489095071910B50C28C0D507B9429
S1130DD012507C931650F48C1950F38C1F50D88EFB
S1130DE02350ED9524506C922650918C2B50CF9724
S1130DF02D5060983650E48B3950908C4950CC88F3
S1130E004F50CE955550F1985C50E2926550928CBB
S1130E107250C38E7450A4917550E3927650F48B43
S1130E207D50558B8D5054969150868C9850508E91
S1130E309950F594AC50C38DAD506297B550C28DA6
S1130E40B7509D8FBE50588CC550CD8BCD50AD93AF
S1130E50CF509C91D150A18BD5506C96DA50BB9752
S1130E60E7506D91FB50C6950051568B0451AD89E6
S1130E701251F28E1A5152991F519E8F2A51449742
S1130E803251D7964151F2884351B38C44515A8C14
S1130E9045515B8F46519B924751A28B4851E69036
S1130EA04951F58C4B518E8D4C515B994D51C696E1
S1130EB04E5165935051998E52515A9954515C999F
S1130EC05A517D935C51958A6551FC9368515391B5
S1130ED06B51AA946C51F68C6D515A987151A48B34
S1130EE07551BA957651B4917751EF8B78515493EB
S1130EF07C51938C8551E09386517E898A51FB8D78
S1130F008D51C48D91516899925160969751E78F94
S1130F109951CA8EA051A58AA4516C99A551BB962A
S1130F20A8517995AC517E93B451E18DB651E896B0
S1130F30B751E297C451A690C651798FCB519C9278
S1130F40CC51BD97CD518093DC51A3EADD51C38BC5
S1130F50E0517B99E1517D96E651888FE751FA91F2
S1130F60EA51E293F1514D8AF651A58BF851CA9397
S1130F70F9519A89FA516F8FFD519F9400528193D0
S1130F8003526E900652AA950752D8900852A08A2E
S1130F900A52A78A1152598C1752F1971D52898F00
S1130FA02452BB942552CA952952989730529E9345
S1130FB03652A7903752FC8D3852948C39528B9903
S1130FC03A52688E3B528F8D4352E4924752A59118
S1130FD04A52ED8D4D524F91565255965B52848D27
S1130FE06352958C6452DC8D65528D946A52929949
S1130FF06F529B957052E88F7252848A74529399FF
S113100075526E918352638A8752808C88529C9960
S11310108952AB979B52CD979F52F78CA052C189AE
S1131020A352F297A952958FAA527793AB52858D0A
S1131030B152E397B4524A98B952F88CBE524E8AD0
S1131040C3527596C552BA92C7524597C952D7959D
S1131050D552AE93D852A88AD952B196DD529F8FF9
S1131060DF52E595E252A890E452CE8BE752A98A6A
S1131070F2524D8CFA52D98EFE52F98CFF52DC9604
S11310800153E6960253F5930553EF951653BB8926
S113109017536B961953FA8D1D5378912053A08FD3
S11310A02153A78B2A53D994395343953A53E68B4A
S11310B03B53E3883F53BD934053BD9941535C8FE9
S11310C04353E7904753A18F4853DF8C4A53BC9452
S11310D04D53C2995153DA945253B2915353EC91F4
S11310E05453A68B5753EC93585350925A538E949F
S11310F05C536D966053E8906653548C6F534B89E0
S11311007053F3887153EB8A7353A6917453708BA5
S1131110755391977853B5897F53A88B8253CA9995
S11311208453EF969853D0979A53FA8C9F53B48C68
S1131130A053CC99A8537E90A9535889AD537D8967
S1131140B353B58CBB538E8BC253518EC8539496F4
S1131150C953B38DCA53798BCB534697CC536F91F4
S1131160CD53BD94CE53FB8ED453668FD653E68EA7
S1131170D753F38ED953968FDB53BE94E1536289D0
S1131180E2537091E353FB8CE453C38CE553E58B3A
S1131190E9534092EA53FC91EB53A98BEC53A28F91
S11311A0EF53C289F053E491F153B68EF2536A8E31
S11311B0F3534589F653908AF753868DF853698E15
S11311C00354688B0454658A0854878D0954678BCB
S11311D00A54DD920B5444890C54AF930D54BC96BD
S11311E00E54408D0F549997105466931154FC8CEF
S11311F01B544E8C1F54E18B205469962654DB9467
S11312002B54DC8A38547A8B395481903B54AB95F7
S11312103E54E18C425443984654F0954854E69227
S11312204954E08C4A54908D5154DB936854FC8E9D
S11312306A54F48E7354A1967B54EF997C54C48CF5
S11312407D54BD968054F0998B54EE8D8C546198E6
S11312508E54E999AC54F999B254E78DB354508A39
S1131260BD54F488C054A388C1546995C954C68D2B
S1131270E154F588E854A38FE9548996F2544E93C7
S1131280045553890655B48D07554F9010558293D4
S11312901655A0882F5542973155A58F3E55C191BB
S11312A04455ED914655A48F4F55E29653555B8CAA
S11312B0845550918955418D8B559D929855629ACC
S11312C09A55AB8A9C55EC8A9D55858AA755968C70
S11312D0AA557291AB55698BAC55AA8BAE55649ADD
S11312E0B055F28BB6556389E3556B8E0656519211
S11312F00956C3891456719A1756A68F18565289DF
S11313002956DC893156FA8F42565C894C565891DD
S11313105B569A8A6856ED8A7456AC957856D39380
S11313207A56B6948756648AA2565894C056939AAD
S1131330C156919AC356929AD356979ADA56FA8E10
S1131340DB566C8EDE56F189E056F688E3566392DE
S1131350EE56999AF056A28DF256CD88F3567D90AA
S1131360FA56C58CFD56918D0357DE950B57A09AFE
S11313700F57978C125780891357A29A1F57799346
S11313802757B3882857DD8D2D575C8C30576E92C4
S11313904257E28D4757CF8B4A5756965057BF8DC9
S11313A05157428D6457A38D665752926A57D8920B
S11313B0825782908B575E8CA257438DA3575F8AC6
S11313C0C357BA9ACB578496CE57E98FDC575794B4
S11313D0DF57E688E0577595F457FB8FF757B78EBC
S11313E0F9577C94FA57EE8AFC57E98D00587896A1
S11313F00258B0930558988C0658CD911558C2914F
S11314002158C69A2458E7922A58AC8A30588189C0
S11314103158F1953458EA8F355867933A58E48D2A
S11314204058BB954158DB974A58F2895158599115
S11314305458839357586893585884935958B79479
S11314405A58CB925E58C78D695896896B585593F4
S113145075586F907958CD9A7E586D8F8358AB8BA1
S11314609358E69597589D919C58C4929F58D09A4A
S1131470A8586E96B358AD95BE58A48DC158C7955B
S1131480C7586492CA58F389CC58EB8FD558888DC5
S1131490EB586D8EEC587090EE587391F058BA90EA
S11314A0F158EB88F2588494F758D9920959CF959A
S11314B00F59C48915595B9716594F8A1959678F63
S11314C01A59BD911C59E9962259B2962759E591AA
S11314D0295956932A59BE912B5976952E599B8991
S11314E03159B88E3759CE88445982894759EF8A81
S11314F04859DE934959F2954F59749151595F8C6B
S113150054597A965759859365599C896859A78F78
S11315106A5944926E59B1957359978F74597A9355
S11315207D59448D825940948359DC948459CF96D3
S11315308A5944949359578B965964979959AD96FF
S1131540A559C391A8595796AC596993B959859629
S1131550BB59C88DBE59A88FC9596F8ECB596E8E91
S1131560D059B788D159C68CD359A990D459CF88AA
S1131570E5595789E659AD8AEA59C396EB5950950E
S1131580F659A688FB59F788FF59708E015AD088FE
S1131590035AA188185ABA96205A5090295AD895B5
S11315A02F5AE28C3C5AA98F415A4B98465A6B9455
S11315B05A5AA58D665A77957F5AB996925A7D9450
S11315C09B5A5195C15AC589C95AB98ECC5A998C1E
S11315D0E15A8492095BF08A225BEC8F2C5BDA92ED
S11315E0305B6489505B718E545B458D575B9A8E7A
S11315F0585BB6915C5B798E5D5B468D5F5BD09684
S1131600635B478B645BC78C665B778A6B5BB79164
S1131610785B7B9B855BEE91875B4689885BE78E75
S1131620895BC0888B5B76918C5BAE8A8D5BB38E55
S11316308F5B478D955B8693975B408F985BAF8AF2
S1131640995B88929A5BE8929B5BB6889C5B588B0B
S11316509D5BF3959F5BC08EA25B718BA35BE9904E
S1131660A45BBA8EA55B4797AE5B7B8BB05BC98DE1
S1131670B35B518AB45B8389B55BAA8FB65BC689B9
S1131680B95B6597BF5B688FC25BE28EC45BF18A0E
S1131690C55BD093C65BA796CC5B7895D25BA68AD4
S11316A0D35BF58BDB5BB08ADD5B5190DF5B408EF7
S11316B0E15BC789E75B4A94E95B5290EE5BBE97B6
S11316C0F55B9E92F85BA190FA5B9B8EFE5BCE91DC
S11316D0FF5BF58E015C9595025CEA90045CCB8E11
S11316E0065CAB8F095CD1880A5CB8910B5C719085
S11316F00E5CB1930F5CAC8F115CAD8F165CEB90FC
S11317001A5CAE8F245CDE962D5CC48B315C418FF9
S11317103A5CDA8E3B5C4B903C5CF2933D5C73909C
S11317203E5CF6943F5C4194405CC78B415C9B9B60
S1131730455C8F8B485CFC8B4A5CCD934B5CAE89DB
S11317404D5C728E515CFB8B555C57935E5CAE9125
S1131750605C6A93615CC68E645C7791655C9A9701
S11317606F5CD493715C528E795CA69B905CF28A18
S1131770A15CAA89A85C5A91A95CE28AAC5CA69691
S1131780B15CD091B35C788AB85CDD8AE05CBB93D1
S1131790E15CAC8BE85CE389EF5CF595F05CF49577
S11317A0F65C8793FB5C738F075D92900E5DE88D0A
S11317B0165D528A295DF695505D9297695D939006
S11317C06F5DB58D8B5D8893BA5DE497CC5DDE8AE1
S11317D0DD5DEC90DE5D428FE15D848FE35D83919E
S11317E0E55D488DE65DB68DE75D498DE85D908BDE
S11317F0EB5DDE9BEE5DB78DF15DC88CF35DA49669
S1131800F45D6294F75D4A8DFB5DAA8AFD5D4692A4
S1131810FE5DD08B025E738E035E7A95065EBF9486
S11318200C5EF38A165E9F921D5EE992255E83909C
S11318302B5E748E2D5EC8902F5ED191305E418BED
S1131840335EA092385EED8F3D5E5896455E9D9561
S11318504C5E7996555E8B96615EA694635EBC95EC
S1131860725EB18A735EBD95745E4E94785E4B8DE4
S1131870795EB28A7B5EB68C7C5E63977D5E4897A8
S11318807E5EF48A815EA192835E4C8D845EAF8F0E
S1131890875EDD948A5EB08F8F5E988F955EEA9244
S11318A0965EF795975E58939A5E4D8D9C5E7B95F8
S11318B0A65E7893A75EC08DAB5EC98CAD5EEB92DD
S11318C0B55EC188B65E8E8FB75E4E8DB85E669784
S11318D0C35E7094C95EF597CA5E4C98D35E668AFF
S11318E0DF5E5F95E05EB18FE25E459CE35E419C06
S11318F0F65E8489F75EEC92FA5E9A8CFB5EF4895C
S1131900FC5E5594FF5EF993015FD995045F4D9891
S11319100A5FBE950D5FAF980F5FAE8E105FF393B5
S1131920135F7C8B145FA292155FF888175FA495F0
S1131930185F4F8D1B5F6F921F5FED92255FED96D1
S1131940265FB78C275FCA8C315FE38E355FA39225
S1131950375FAD8B3C5F4A953E5F65924A5FAE8BC5
S1131960535F9693575F619C595F629C615F639C70
S1131970625F608C665F4695695FCA8D6A5F569543
S11319806B5FA4926C5F6A95705FB28F715F6589BB
S1131990775F669C795FF0967C5FDE94805F9D89BB
S11319A0815FAA90845F618C855FD2918A5F6A9C13
S11319B08B5FA5978C5FE38C905F998F925F6B939D
S11319C0935F5D8F975FBE93985F709CA15FE48C7B
S11319D0A95F9C95AA5F7A8FAE5FF794B35FBF93BC
S11319E0B45FA592B95F4F93BD5F4A8BC35F5390B9
S11319F0C55F4B95CC5FF58ACD5F4594D75F758EF7
S1131A00D85F5996D95F5A96DC5F9E89E05F8992C8
S1131A10EB5FF589F55F4F94FD5F9A8D12607B93C0
S1131A2016607C951C60E5971D60768E2060D391CE
S1131A3025607D8B2760AB90286085892A60F689B4
S1131A402F60AF8B4B60F6974D60929C5060B08BCB
S1131A505260508D55609A8F6260F889656070920B
S1131A606860A68D6960B6896B60989C6D60B18B67
S1131A706F60A7917060868A7560628C8960BB8E86
S1131A808C60EE929460F7899F60E58CA060499722
S1131A90A360B38AA6607889A9605994AA60AB88C8
S1131AA0B260DF94B660E396BC608993C560EE8F44
S1131AB0C760D593D1606698DA609B8DDC60C9906D
S1131AC0DF60D288E3607991E860538EF060C4915E
S1131AD0F3607A91F960E48E0161448F0861FA96AB
S1131AE00961F9960F61D3881A61F08B1B61A48890
S1131AF01F61B48A48619C8E4B61D4914C61518DB5
S1131B004E6154905561E79562619D966361B58A13
S1131B106761648C6861538A6E61B6977061D4881A
S1131B207661638C7E617C9782614A978E619E9117
S1131B309061F7979161DF9C9461DC9CA461AE9500
S1131B40A761B293A961658CB2619B8CB661AF89C0
S1131B50BE61B68AC761A78DD061F989F261A69288
S1131B60F8619C8C0A62E8950E625E8F1062AC90FC
S1131B701162E4891262FA891662BD881A62CA90F7
S1131B801F62818C2662ED902E62439D2F62598BD9
S1131B903062449D3462D5913862CB8C3B62DF96CF
S1131BA03F625B9640628A8F4762EE904962E0949E
S1131BB04B62E88E4D62CB8D5362C5915562A595FB
S1131BC05862EF916E62AF957162B58876627D95C9
S1131BD07962E1947F62B38F80625A8B8462B48F9E
S1131BE08A62639491627D9795628A939762528D1B
S1131BF09862DC909C62B2949E62F091AB62E29433
S1131C00B162F895B562EF92B9629596BC629F890C
S1131C10BD628A92C5625392C962669DCD628F94F9
S1131C20D062FB89D262918BD362F191D862538DD9
S1131C30D962D990DB62B58FDD627194E062928BD8
S1131C40E162678AEC62878AED624090F3629D8C60
S1131C50F662418EF762898DFE62458F01639D8E27
S1131C600763778E0963C2881163A7921963938B04
S1131C701F63B28B2863A5882B63C18D2F63559096
S1131C803A63F0923D63D2943F637D914963A89196
S1131C904C634A8E5563DF955763BB925C637B91BB
S1131CA06763F9956863CC8E6E63989072639E8CBB
S1131CB07763B78F7A63E6937B63509483637C91F5
S1131CC08863F68E8C63B68F926372949863408CAB
S1131CD09B637C8AA063A997A163CC8DA263549271
S1131CE0A563DA90A763548DA8638490A963868959
S1131CF0AA635B91AC63648BB263668CB463CD926C
S1131D00BB637E91C363B591C463899DC963869D9A
S1131D10CF636095D063F192D6634B97DA6367978C
S1131D20DB63B78AE163AC88EE63F68AF463878980
S1131D30F663889DFA6368970D64B99116648A9D69
S1131D402C64C0942D648B933A64678C3E64EF8D4D
S1131D504264DB9058644593696480967864CC96B9
S1131D607A64A0908364828C9264548E9A645194B1
S1131D709E64B393A4645093A5649B9DAB648F95B8
S1131D80AD646494AE64428EB064EF90B2646F96B6
S1131D90B964688AC1646997CD648091E2644693AA
S1131DA0E664438EEC645B8BFE64EF8F2A65989D3A
S1131DB02F65788E3965FC893B65558D3E65FA95AE
S1131DC03F65AD904565CC8C4F65719551657E8BB3
S1131DD0576573945965B38B6265B88A6365558E8C
S1131DE06665D6936C65688C706594907465AE90E6
S1131DF07565479377657E958765B6958965C490C3
S1131E008C656B958E65D68D9065E3949165C194D0
S1131E1097656C939965BF979C65CE8EA165B488D0
S1131E20A465D28BA565CB90A7658095AC65618EC2
S1131E30AD656692AF657A8EB0655690B965FB95CF
S1131E40BC659789BD657B8EC565B797CB65F990F1
S1131E50CF65B091D765F88AE265F98AE565FA93AA
S1131E60E6655592E7658C8BE8657C8EE965819122
S1131E70EC657B8FED65AE88FA65A0890266568DA8
S1131E800666A98D0766B88F0C66B98F0E66BE9676
S1131E900F66A88D1366D5881466CC901F66AF9024
S1131EA0206666892566748F276686962866F08D77
S1131EB02D66BA8F2F66A5903466E39D3C668B929F
S1131EC042669E8E4366578D4B66579052664E8E81
S1131ED06666418A6966D3946E6681956F66698C7D
S1131EE07466B0907666BB8F7A6671928166C58B94
S1131EF08766C98991668B8F966667929766C38851
S1131F00A266A892A666EF97AB66628EAE66E99566
S1131F10B4665C96C766DC93D9668C8FDC666A9778
S1131F20DD669894F266C88BF3666789F466588D0B
S1131F30F866918FF9668291FD665D91FE665C910B
S1131F40FF66D6910067C58D0367F09808678E8C8D
S1131F5009674C970B67FC950D679E951467F18D87
S1131F601567BD9217674E981B675D961D67A9920A
S1131F701F67FA8A2867D8962A67A2962B679696CF
S1131F802C677B962D67448E3167E98E3467709693
S1131F903A67F78A3D67808B4667579E49679990F1
S1131FA04E679B974F67C7885067DE8D5167BA911C
S1131FB05367DB8E5667F18F5C676D935E67589E3F
S1131FC05F67A9916167F08F6267DB9665678897A1
S1131FD06D67598D6F67749471678C9375676E8B99
S1131FE0776766947E67BC8F7F67C2948767F8942F
S1131FF09067CD9095678D969767D1979A678796E6
S11320009C67CA899D677D8EA0676798A267959033
S1132010AF67CD8CB667CB89C167C691C467BF95DE
S1132020CA674195CF679094D0675E96D167B98AA5
S1132030D367F590D4675F8FD867D192DA674D97ED
S1132040F1678C92F367F696F467C48EF567F28DA8
S1132050FB67B88DFE678F96FF67608A0268CC9233
S11320600368C893046868891368F0901668B2908E
S11320701768498C21685A8D22689C8A2A68948A38
S11320803468F19038686A8A3968AA8D3C68698A2C
S11320903D68CD8D4168858C42686A8C43688D9318
S11320A04868C4885068CB8B51684B8C5368BA8A93
S11320B054686A8B5C68F78D5D6891965F68568E8C
S11320C067684F957668B1898168C09785687E9402
S11320D09368B28897685B8DA268BD8FA768E68C09
S11320E0A8689C97AF68F292B068428AB168AB8DD9
S11320F0B568909EB668818ABC688E93C468FC8A71
S1132100C968C796CB68FB8ACD689E9ED2685F96E5
S1132110DA684992DF688F93EE685890F268B1905C
S1132120FA68BB8A00696F980569D6880B69B89606
S11321300D6941900E69C59219699A901B69918A3B
S11321401C699F8C3469CC933F69D6924A696B971A
S1132150536996955569C8915A695E916069ED9382
S11321606269E8936D69C68B6F697C8F736980942B
S11321707569C98B7C694F987D69798A8269548AAB
S11321808A69E58D8E697C89946950989B69599018
S1132190AE69C49EC769A0EACB695C8DCC69C6925E
S11321A0CD698491D8696C97D9698A96FB69CE9276
S11321B0FD6985910B6AF394176A9492196A57958D
S11321C01F6ABE8F216ACD96296AA08C2A6AA189CA
S11321D02B6A7E8A356ABF8F396AF78E3A6A928A89
S11321E03D6A4D924B6AB48B586A6B8B596AF29E66
S11321F05F6A408B616AC9937F6A808A806A689249
S11322008E6AE78CAC6A479FB86A459FBB6A429F57
S1132210C26A449FD36A4598DB6AF98BE86AA5943D
S1132220046B9397056B4F9F1D6B5489206B878CB0
S1132230216B9F8E236BD38B276BA289326B7E9786
S11322403A6B5C8B3D6BD48B3E6BBC8A4C6BCC89FC
S11322504E6B5692536BBD8A626B7E8E636BB390EA
S1132260646B9F8D666B9095696BE0956A6B639860
S11322706F6B958E736BCE8D746BF0977B6B808ECA
S1132280866B7796896B7D8F8A6BEA8E8B6B638EF8
S1132290966B4290B26B729FB46BA389B56B6992D3
S11322A0BA6B458EBB6B6B8ABF6B6193C56B428BFC
S11322B0CD6BEA95CE6B8896D26BC593D46BE494C0
S11322C0D86BF994DB6BD196EC6B7B9FEF6B7E9FA5
S11322D00F6C818E116CAF96176C438B236C869FA9
S11322E0346C8590376C5895386C69893E6CC3940E
S11322F0406CF392416C608F426C818B4E6CC49441
S1132300506CAC8E576CBE8A5A6C98895D6CF09395
S11323105F6C5D8D606C7292706CBF91726C828B1D
S11323207A6C888C7D6C448B836C8097886CBE92AD
S11323308C6CD793936C428C966CAB89996CB98DE9
S1132340A16C7696A26CF291AB6C9796B36CCD8926
S1132350B86CA695B96CFB96BB6CA18EBC6CC08F97
S1132360BF6C8889C16CB58BC96CF290CA6C9194AE
S1132370CC6CE594D56C4096E16C4196E26C679424
S1132380E36C838BE56C4493E86C8D92F06CD7918D
S1132390F36C6A890B6D6D97176DF4901B6D8C97B8
S11323A01E6DB493256DC392296D6B892A6D5E8D64
S11323B0326D468F3B6D888A3E6D6894416DAC9753
S11323C0446DF28F456DF3905C6D6C95666D598923
S11323D0696D5F8D6A6D51986C6D5C8A6E6D8295C6
S11323E0746D8197776D438A786D5A90886DC18F2B
S11323F08C6D4F97996DDC979B6D93939C6DC093F7
S1132400AF6D558AB26D7489BC6DC197C06D8497E8
S1132410CB6DD297D16D698FD86D9193E16D579241
S1132420EB6DFA88F16D5B90F36D7E8FF56DA3957E
S1132430F76DAC8DFB6D5993056EB490076E898A68
S1132440086ECF8D096EC28F0B6E618F136E6B8C0D
S11324501A6E8D8F1B6EB88C206E948B216E6E93CA
S1132460256EAD88266E5189296EB7892C6EAA9186
S11324702F6E608D4A6EA996566ECE8C586EC38FA1
S11324805B6E5892676E4E976F6E92937E6E7098E5
S11324907F6EBC8E806E9E968C6EAC94906EB98C62
S11324A0966E808F9C6EAD979D6E618DA26EEC884A
S11324B0B66E6E97BA6E4D93C56EC596CB6EA08EF2
S11324C0CC6EFC9FD16E8A8AD36EE69FDD6EEA9154
S11324D0DE6ED891F26EF89FF46E4893016F998B7B
S11324E0026F5995066FBD8E096F978D0F6F5298C5
S11324F0116FF29F146F8989156F8691206F9994DB
S1132500226FBF8A236FF8972B6F9F962C6FD09200
S1132510316FF99F386F5191456FC18A546F898C1F
S11325205C6FF6905F6F838A646F818F6E6FAA927F
S1132530706FD792846F9F90976FC08AA46F56E094
S1132540B16F6293C06F838CC16FF791C36F5A945C
S1132550E06F8A8DE16F4794EB6F9497EF6FF3917F
S113256015706D951E70D293267095922770EB911D
S11325702C70A3904C70F39F5870E5936B70CE89C8
S11325806F7094937070448A7870848B7C70DC8E46
S11325907D70D08D897046988A7086908E708A89F5
S11325A0927075E0997074E0AC7078E0AD705992F7
S11325B0B87079E0B9705F93BA70D788C870F39730
S11325C0CF704789D97080E0DD707EE0F970429663
S11325D0097181E014718B89197184E01A71B095C5
S11325E01C7183E02171B3962671C58F36715291A7
S11325F03C71C48F4971F9974C718AE04E71F79020
S113260059718C89647181946771C68F6971CF9493
S11326106E71CF8E7D71F8908A71468C8F718DE0CA
S113262094716F979F716E8FA87191E0B1714D9401
S1132630C3715294C8719593C97197E0CE7199E0B2
S1132640D071D397D27196E0D5718D89D77193E00B
S1132650E5718791E671578EED714390FB718EE0C1
S113266006729A942A72DC922C72A6E02D72A5E06E
S11326703272A8E03572DD8E367283953A72EA962C
S11326803D7275913E72A28E4772D0954872C59480
S11326904C7276945272AB925972E5895B728D8B4F
S11326A05D72C4965F72B4966172B2896272539815
S11326B0677271966972A8957272B5907972C193B6
S11326C07D72A18C8072D28DA0725D8BAC72A28C53
S11326D0AF72C694B672F38FC272B68BD072CF8CBF
S11326E0D772E78BD9725F91DB729D8DE172C2E084
S11326F0E272C0E0E972EB8EEC72C693ED72B78BB6
S1132700F8724B92F972C3E0FC725498FD72829491
S11327101B73D2961F73C2972573CEE02A739692C9
S11327202B734C942E73A38C367350973773519735
S11327303E73CFE03F738E894473968D4573828ECA
S11327406373628F6873D5E07073D6E072736C8ABA
S11327508473BA8C8773A6978973CA8B8B73A48985
S11327609673E88BA973DF8AB273E697C073DFE0D0
S1132770C273CF89CA73588ECD73BF92E073EC8E47
S1132780EA735D8CED73C794FE73BB8C0374858B05
S113279006749D970974AE972274F4913374D49798
S11327A03474D58B3574FA94367469945A74E88CFD
S11327B05B746C895E7490906074DA976A74F3E069
S11327C07374BA8D83749E97B074C28ABD74A38ED9
S11327D0DC745A89E2745A95E674A28AF674729586
S11327E01175998D1875C38A1A7572901C755B934F
S11327F01F75B6902375598E25759989267553E1F1
S1132800287570972B75E1953075639331755297E0
S11328103275628D33755C9037756A923A75AC92F5
S11328203B75E68946755BE14C75458A4F75D888DA
S11328305175A8945475C8945975AF975C757B927B
S11328405D75A4906075A99462754C956575AA9799
S113285066756C8C6A75D4947075D9887375F48FA9
S11328607775EB937F75458B8B7544958E75619168
S11328708F75609191755E8BAB757589B275E694B1
S1132880B57572E1B9755D90BD7573E1BE75BE8EA7
S1132890C5756195C775C78FD27579E1D475A48E56
S11328A0D575AD8DD8759793DB75C992E2759F97F1
S11328B0E9758991F47573924276C3974C76E08AF0
S11328C05276FC965676C8957A76AD947B766F935D
S11328D07D7692947E765395847649938676468A5D
S11328E08776638D9076488EAE76E794BF764D8E6C
S11328F0C3767594C6767E96C8766D89CA767689CF
S1132900D7769093DB76B790DF76BF96E376C48A6A
S1132910E476D594EE76DA96F276D396F476BC9293
S1132920F8768A91FE76828F0177C88F0977FB94B7
S11329300B77C58A0C77A78C1F775E902077B096AB
S11329403777C5E13A77AD923C77E18A4077859253
S1132950617787906377C293667772966877C9E1E7
S11329606B77CAE17E77CEE19177D2E1A577CB95FB
S1132970AC77758FAD77C497B377B593BC77D9E14E
S1132980DB77B596E277EE96E5776D92E7778A94F2
S1132990E977E98BED775A92EE77E2E1EF77B88B3E
S11329A0F377CE900278BB8D1278E5E11478A48C8D
S11329B01578D38D257875932678D48D27786D8BEB
S11329C03278439634786A943A7876933F787B8D5C
S11329D04578E9E15D78C98F6B78B0976C78648D40
S11329E06F78A58C7278A1947C78EDE18178E98C7C
S11329F08778F4928D78568A9178E89493784F8901
S1132A009578EA8D97787198A778C995A978D79021
S1132A10AF78F3E1BA786D8AC178A58ED078D69470
S1132A20E8788196EF78E9880179CA8F0E79629106
S1132A302B7949E23A79A68E3C79E7973E79D08E94
S1132A4040794AE24179568C47795F8B4879468BC5
S1132A504979838E50795397537950E2567963912B
S1132A6057794CE25D796A8F5E795F905F794DE2C8
S1132A7060794BE2627949946579CB8F68795B958B
S1132A806D79D58D777998938179D68B84795C9893
S1132A90857954918A7953E28D79D0898E79F5922A
S1132AA08F799F95A6799A8BB0794894BD79D78B05
S1132AB0BE79D189BF79C393C079478FC179848E98
S1132AC0CB79488FD179C889D2796295D879E9943C
S1132AD0DF796491E4798994E6796090E979819267
S1132AE0F079CC8FFB79DA88007A488B0B7AF692EE
S1132AF00E7AC590147AAB96177A42951A7A749224
S1132B001C7AC5971F7A67E22E7AED8E327AEE88A8
S1132B103C7AD2893D7A6D8C3F7A658D407A928D6C
S1132B20427AE495467A73964D7ACF904E7A6E89BE
S1132B304F7AB889507AAA88577A6EE2637AF58F09
S1132B406B7A6E8A747A8A8C767A868B7A7AF38B2D
S1132B507F7AFA90817ACB93837ADE90847AF38DAC
S1132B60927A8292937A8B919F7A418CAA7A458C3D
S1132B70AE7A878BAF7A7197BA7A4D89C37A968A7F
S1132B80CB7AA797DC7AB397E07ACD8FE37A768F06
S1132B90E57AB693EA7A4792EF7A5B92F67AA38B58
S1132BA0F97A7C92FA7AB18EFF7AC68A087B888B8E
S1132BB0117BCE8F1B7B4A93207B7D8A257B79906A
S1132BC0267B84952C7BE691397BF98D467B4D954C
S1132BD0487BA494497B99934B7BD88B4D7BA1E292
S1132BE04F7BB394507B9EE2517B7D92527B9B93AF
S1132BF0547B9A93567BF48D867BCD95877BD389C2
S1132C008B7BB3E2927BB4E2947B9394957BA59601
S1132C10977B5A8EA17BC78AAA7B5C92AD7BFB9083
S1132C20B17BA094B87BA294C07BDF90C47BCD948D
S1132C30C77BD195C97B7A92E07BC28EE47BC49337
S1132C40ED7B5598217CC88A387CF4943E7CFA97B5
S1132C503F7CEB954D7CD090737CC4957E7CE09654
S1132C60817CCC8B827C488C897CB2958B7C8890CF
S1132C708D7CAE96927CB197957C9494977C65916B
S1132C80987C53949B7C6C8F9F7CBE88A57C9F8A88
S1132C90A77CCF8FBD7CEEE2BE7CB890C07CEFE217
S1132CA0CA7CD08CCE7C5791D67C9C93DE7CB39529
S1132CB0DF7C8C91E07C668DE77CC697F87C858E02
S1132CC0FB7C6E8CFE7C8A8B007D498B047DF196A7
S1132CD0057D678D0B7DE4960D7D5B94107D52958B
S1132CE0147D838F177DD18E187D688D197D868E16
S1132CF01A7D898B1B7DB495207D6691217D61961B
S1132D00227DF58D2B7D878E2C7DDB922F7DDD97AB
S1132D10307DD78D337D6190397DD08F3A7DAE8DF6
S1132D20427D498F437DBC8C447D6791467D4AE357
S1132D304C7D6F8C507D8B8C5E7D698D617D8D9714
S1132D40627DBA88667D8B8B687D4FE3717D9D9330
S1132D50757D478A767DE290797DA68C997D708C0D
S1132D609A7DB1919C7D8E91AC7DF88EAD7DDB8892
S1132D70B17D6A8DB27DD496B47DD492BB7D5D92D3
S1132D80BE7DBB88BF7DC896CA7DD98BCB7DEA94B6
S1132D90CF7D8D91D17DCE97D27D8F8FDA7DFC90C2
S1132DA0E07DF792E87DD295E97DC98AEC7DC996EC
S1132DB0EF7DDC88F47DFB97FB7D6BE3017E8F89DF
S1132DC0047EEA930A7E6FE31B7E9B941E7EC88E6C
S1132DD0237E70E3267E638F2B7E44962E7E6B8F3C
S1132DE03E7ED190417EC9944A7E40914B7E718C47
S1132DF04D7E4A8F547E4490557E55916D7E9A96B1
S1132E00707E4A8C827E5B8E8F7E5A93367FCA8A0E
S1132E106A7FDF8D6B7F728C6E7F7592707FB19449
S1132E20727F908F757F6C94777FEB94857F859705
S1132E308A7F72978E7FFC94A47F518CA87F4191E6
S1132E40A97F608BBD7F4889C17FA589C57FC0E309
S1132E50C67FC1E3CC7F8297D27F4B8FD47FC4E3FC
S1132E60E07F8990E67FC6E3EB7FE38AF07FCB8A3D
S1132E70FB7F7C96FC7F8397008073970180569834
S1132E8003806C8D0580D28E0C80A78E1080CF912C
S1132E901280CEE315806B8D1780D5963380A88E73
S1132EA03680EB963D805E924A80D6E35680B99098
S1132EB05A80DAE35E80B79561808F916F80FC97CA
S1132EC07380DEE37480AE927680E1E37780459090
S1132ED07E8057988780A3948980F7938B805D9830
S1132EE08C80A7949680D18F988049959B80E8E345
S1132EF09D80CC8AA180D28CA280888EA580EC94FF
S1132F00A980A88CAA806296AF806D8DB1806E8DE9
S1132F10B280E788B480E68DBA807894C380DD8877
S1132F20C6805F92CC807794CE80D991DA80F3E327
S1132F30DE804596E180D38CE480FB88F180F7E362
S1132F40F480B793F880B98BFD805C940281898EFC
S1132F500581BA8B0681C690078165980881AC9675
S1132F600A81D2901A81728B3181459233815D94AA
S1132F703981AF924B81FCE34E81749050818595E9
S1132F8054816F8D558172985F8154E46B81EE8E0C
S1132F907081988D7881B0927981A0957A814291DF
S1132FA07F81DA918F81708D9A8186959C818C9630
S1132FB09D814795A08150E4A8816396B381569181
S1132FC0B58158E4BF815E94C681B089D3819F9155
S1132FD0E3816290E581E789E881D597EA81A98E4A
S1132FE0ED814C8FF3818A8EF4817692FC81508935
S1132FF00882BB8B0C82E3900E82C98E108272E42D
S11330001782DC951882DA8A1B8243911C82778F9F
S11330101E8291951F824D8F2A82718D2C82CA94B3
S11330203582C791368295943782BD8C398244911A
S11330304782F8925A827CE464827EE46682CD8A76
S11330406E82AF8D6F82C797728246907682908926
S11330508B82F088998287959D82C58EA582488A45
S1133060A682B088AD826D94AF826390B182D48918
S1133070B3824696B8827C8CB982DA8BBD82E889A9
S1133080C582A18AD1829189D382E897D482DB91C7
S1133090D7826395DB82D589E582E18EE682EA8B6D
S11330A0E7829792EB82CF93F1827089FA8295E45A
S11330B00283CE960483D68905839D8A0E83738CFE
S11330C01C83A9882883EF882B83A9E43483A0E494
S11330D0368383923883F9913983A5E44083A4E449
S11330E0498390914A83748C4F8360895283728D93
S11330F0588391917783D7897B83AC899E83CE8AC9
S1133100A283B0E4AB839C94B1838997C5839B90DD
S1133110CA83658BCC83DB8BD383D989D683D28F47
S1133120DC83D88DDF837093E983EC95EF83D889B2
S1133130F083D48CF18348950484B8930C84479627
S11331400E84DE8829848B9431849E8A3D848E97F4
S1133150498474974E84A897578498925B848B8A89
S11331606184929563849F936684AF886C84929102
S113317071844B947584A8887A8498958B84D38FB2
S113318090844E8F9484AA8E9984D6969C84669556
S11331909F84E5E4B284978AB884F68FBB84E8E41C
S11331A0BC849391C4847E92C9847597CB84578AD6
S11331B0D184AA96EC844896EE8440980085C18E0A
S11331C01185CC951385A0961A8555892685D392A9
S11331D02D85FC883585A0913D85C1954385D7947F
S11331E04985D48F4A85C78E4E85BC8B5785999562
S11331F068856E986985A0936A8593957E8551E567
S113320084859694978592899985E393A6854591BB
S1133210A985468EAA856490AB854F8CAC85F296C1
S1133220AE85F796AF85928FC1856D98CD859597BC
S1133230E485A193E985CB94F785938FFB859491DD
S1133240078668912D8696974E86D58C5086738B0B
S11332505A86958B5C86B8975E86F18B6B868E92C8
S11332607986F8937B86B8888A86E18995865C8E10
S1133270A4866194C786D68ECB866092CD86758CE3
S1133280CE86618AD9865E8ADB8681E5E486B89437
S1133290ED866795EE86D894F886FB91F9868CE5E1
S11332A0FE86E98902874996188777921C87A89633
S11332B04987E4904B875898558749906687DA89FF
S11332C07687B1927F8788948287A5E58D875A9700
S11332D0A287A3E5BA878697F287B3E5F987498A77
S11332E0FB87618B0588A2E52288BFE540888C8C2A
S11332F046884F8F4C88738D5388708F5788588AAF
S11333005B8871895D88D58F6188748D6388DF8857
S113331068885C9570888A9077888F927F88DC8B28
S11333208888558C8B88DC919688B391A288D9E5DE
S1133330AB88ED94B488D18CB788BF88C188D98D07
S1133340C288F497C5889591CF88A097D488E1E581
S1133350D5885497DC88E295DF88BE8DE188A197F3
S1133360F388D68FF8888797FD88BB90FE889E9057
S11333700789A19510898C8A12894A961D89FAE5D4
S11333805689A6895E89FCE55F89DD8B668940E6FE
S11333907289508F778946E67F89BC9081897697B8
S11333A08689A295878965948B89A98C8F894B8B93
S11333B096898B8E978960949A896F8AA789979743
S11333C0AA896590B389CF8AD289708AE389F08902
S11333D0E6894790008ABE8C028AF992088A768C24
S11333E00A8A75900E8AA293138A508C178AF591D3
S11333F0188A4C8B1B8A61E61D8A62E61F8AD78F66
S1133400238A8D8C2A8A4B962D8ADD90318A968B5D
S1133410338AF396348A6991368A64E63A8A6690E6
S11334203B8A90923C8AD88F508ABC8D518AC09135
S1133430548AD98F558A5D955E8A8C8E608A72898A
S1133440638A778C668A8E8E698A8D8E6B8A6C9875
S11334506E8A4691708A6C8B718A6298728A598AD4
S1133460738ADA8F878AD68C898A5F978C8A8F8E43
S11334708D8A4694938ABE90958A6192988A5597CC
S11334809E8AEA8CA08ABD90A48AEB8CAC8AE090D8
S1133490AD8AC793B08A4E92B28ADB89B98AEE9418
S11334A0BC8A628BBF8AB292C78A6B92CB8ABF9066
S11334B0CC8AD08ACD8A79E6CF8A7A90D28AC89784
S11334C0D68A5F98DC8AB392E68AFA92E78A7EE625
S11334D0EB8A7CE6ED8A4097EE8A908EF88A948F88
S11334E0FA8ABF8CFE8AF891008B6496018B7989E5
S11334F0028BE088048BA3930E8BE493198BAA8C24
S11335001B8B758D1D8BD38E218B77972C8B5495AC
S1133510338B90E6398BDE8B498B9AE6588BAF8ED2
S11335205C8B8895668B788C708B638B728BF78F32
S1133530778BEC8C838B5D8E908B518F378C4A927A
S1133540468CA4934A8C4C965A8CD893618CDB8F0E
S11335506A8C8B8D798C5E958C8C65969D8C4C8A4F
S11335609E8CE592A08C8995A18CE08DA28C768DA1
S1133570A78C6E95A88CDD89A98CCC94AB8CD18A50
S1133580AC8CD390AF8C9992B08CE196B48C4D8B6B
S1133590B68CC8E6B78C8394B88CDD91BB8CEF9461
S11335A0BC8C5C93BF8C6696C08CEA89C28C4798AD
S11335B0C38CC092C48C6498C78C918ECA8CAF9112
S11335C0CE8C4791D18CF693D38C6F95DB8C5E8E29
S11335D0DC8C928EDE8CDC8FE08C8594E28CAB8C60
S11335E0E68C8A95EA8CBF8EED8C7193FC8C778D7A
S11335F0048DD1E6058DD2E6088DA1910B8DE48A68
S1133600148DDBE6648DD490668DCD8E6B8D718ABE
S1133610708D9691748D8B95778D4E8B858DB4922C
S11336208A8D7A89A38DEF8EA88D9690B38DAB91F8
S1133630BE8DE4E6CB8DEBE6DD8D978BE18DD590E9
S1133640E88DD78CEA8DECE6EF8D4898F38DB59232
S1133650F58D48910A8E78970F8EA593358EF9E6ED
S1133660428EF8E6448EFB925F8ED690748E528F13
S11336708D8EF496AB8E6790AF8EEB8BBE8E5EE72D
S1133680CA8ED48ECB8E61E7CC8E4F8BCD8E528C6E
S1133690D28EAC8CDF8EEE93E28E5D93F88EB28E7A
S11336A0FD8E798C038F728A098FDA8D0C8F71E706
S11336B0148FE3951D8F508B298F79942A8FD69779
S11336C02F8F538F338F73E7388F41973B8F74E776
S11336D03F8F6097448F8D8A4D8F51935F8F8C8D70
S11336E0618F448C628F80E79B8F68909E8FAB8E36
S11336F0A38F85E7B08F4392B18F4A90B28F5F94C6
S1133700BA8FD395BB8FD292BC8F9E8DBF8F4892B8
S1133710C28F4989C48F9896C58F7690CE8F7D8C41
S1133720D18FDF8BD48FD495E68FDE89E98FF49324
S1133730EB8F9794ED8F5293F08F718FF78FC09624
S1133740FD8FC7920090DE91019097910390A6930C
S11337500690748B0F90A793109080921390FC9214
S11337601490729317908090199087941A90CA922B
S11337701D90C0901F90AC912090A2912290A78898
S1133780239041982E90DF913190548F329069901C
S11337903890ED883C904E954190D99342908B900F
S11337A0459078924790F68B4A9056974B905E8955
S11337B04D90D5954E90DF895390B9935490429291
S11337C05590E1885990A1EA5C90BB9160909389EF
S11337D061906B916390AD8C6590799769904B93F0
S11337E06D9098916E90D58E7590858F77904A9153
S11337F0789049917A90E2887C90C9977F90F09470
S11338008490D28A91905797A390DF93A6904D9677
S1133810AA90D78EB8904093C190E888CA90788DCA
S1133820CE905998E190538CE8909495ED90738ADA
S1133830F5905897F790BD8BFD9073932D9141931C
S11338404991D1934B91558F4C91DE8E4D917A9441
S11338504E9191925291F08E54918C9062917C9001
S11338606A918F976C91568F7591798D7791938D1D
S113387078915F8E8791868F8D91E7919091ED8CF1
S11338809291C1909791AE949C91588FA491DD8FA1
S1133890B891F88FC691CE94C791D18DC891DF8E1F
S11338A0CC91A297CD91648FCE91EC96CF91CA978B
S11338B0D191E08BD8914293DC91988ADD916A9002
S11338C0E391DE92E6917496E791FA8B0D92DD9383
S11338D00E92628A3492E9973792D88C4492539329
S11338E05B9294896292AB946692DE8F71927A8D28
S11338F07E9267968092E28B8392658F8592BA93CB
S113390091924C919892C1969A92B6929B92F3E7B7
S1133910AD924B91CF92F5E7D2924E96E4929B8F63
S1133920EA92DD95ED927389F2926595F392929203
S1133930F892988BFC927C8D06934B8E10938D900D
S113394018938E902093F98F2693D18B28936495A6
S11339502B93E08E2C9342982F93F68D32935E989E
S11339604B93E7934D9374935493D5925B936292E4
S11339706C934C8C7593AE8C7E93DF8F8C93998A69
S11339809693BD8D979399919A93C892A7935A8AC7
S1133990AE93C192B99350E8C39356E8D1934C9334
S11339A0DD9357E8E193BE8BE89353E81894E08FD6
S11339B01994A8933894F6915194D38A5394F89611
S11339C07795B7928095E59683954D918995C295A3
S11339D08B954A8A8F955B899195D58A9395D48ADC
S11339E0A295D68AA395748AA4957D8DA595B49441
S11339F0B2957B89C795C588D895AC931C968C9550
S1133A002A96E38D329668963B966A913F96A288F1
S1133A104096C99144968D954D967E8D5096C08C56
S1133A205B96C395629640896396779064969C8F63
S1133A306596D78A6A968694709641897396C292DF
S1133A407596CB977696A9937896A4977A96AF8C29
S1133A507D967A978596F78B8696B2978896478C4B
S1133A608A96E0918B9640E48E964B8A8F968F903F
S1133A709496758A9596A6E89896A5E89996848C66
S1133A809B96DB8D9C96E18FA0964289A396D7974F
S1133A90A796A9E8B796EA97BB96C790BC96B9943F
S1133AA0C0969D90C196E58AC4965997C596EB89B0
S1133AB0C696578FC796D98CCC96938ED196478E3F
S1133AC0DB969790E296A397E396EF93E8964A895C
S1133AD0EA96E190EB96B48EF096B595F2965F89EE
S1133AE0F696EB97F7968B97F996B9E8FB9664935D
S1133AF00097F98E07976B900A97EC971C979A9109
S1133B001E97E0892797B696329749985297C290A4
S1133B105697F5965997C3905E97F1946297CA9613
S1133B206997768A6D9778907497438C8497938A73
S1133B308B97DCE88D97C6889897E28FA097668B61
S1133B40AD97DA95D397D88AEE974294F397B989CB
S1133B50FB974389FF97BF8B0198C5950298B8924C
S1133B600398A08D0598808D0698878F08987B9080
S1133B700C98F1E8109861971198E68A1298D094FD
S1133B801398DA9317989C901898CC971A987A8C73
S1133B902C986A962D98AA9334986F893798F5E8EB
S1133BA03898F2E83B9870953C988A974698F7E8DD
S1133BB04C98E8914D987A8A4E987B8A5498E78A73
S1133BC05598B08C5898E88A5B985E935E98DE9717
S1133BD06798DA8CA8989795AF9844E9DB98F294A3
S1133BE0DF984890E298518BEF98D194F298F98835
S1133BF0F498B988FC98948EFD984F96FE98FC8FA3
S1133C000599DD960A997B970C9961891099608EC4
S1133C101399EC89219951E92899D98A5799C08B2C
S1133C209699F18E9999818DA8995D8AAC996E9433
S1133C30B3997992B499E993C1999D94C499CA911D
S1133C40C5997789C699EC8BC899ED8BD0999392D5
S1133C50D299EE8BD599ED89FF99788F0E9A528B74
S1133C60129A9B91139AB18C289ACB91309AAB9368
S1133C70559A81E95A9AC18BA89A9C8DB89A5B8A05
S1133C80C49A9190CF9A90E9D19A91E9D39A92E902
S1133C90D49A93E9D89A828DEA9AAF94ED9A45958D
S1133CA03B9BF6E23C9B538B419B408A429BB08DED
S1133CB0459BA3964E9BB2E9549B82965A9B9B8B41
S1133CC06F9B44988E9BBC88929BA995AA9B8E96C9
S1133CD0AB9B4C8EAD9BF88DAE9B4E91B99BC1E9CD
S1133CE0C99BEF8CD69B498EDB9BE291E89B7E8C33
S1133CF0F09BCEE9F19BCDE9F59BB1880D9C828ABE
S1133D00109C6B98249CDCE92D9C68952F9CF18871
S1133D10399C8F8A3A9CCBE93B9C5689489C4C92AF
S1133D20529C9096579CD897E59CB992E99CB5947F
S1133D30F39C5096F49CC296F69CCE93079DBC933C
S1133D400E9DA8891B9D9589289D9B8A2B9DB08ECD
S1133D502C9DA7893B9D838D5C9D4C89609D948D92
S1133D60619DB7966C9D51968F9D7B8CB49DDF921F
S1133D70F29D6898F99DE991FA9DEB8D789EB28C3D
S1133D807F9EAD8E939E5B98979EED979F9ED9974D
S1133D90A69E9E94B99E8D8DBA9ECB96BB9E83960D
S1133DA0BF9E9B96C49EA989CD9E6F8BD29E958DF6
S1133DB0D99ED996DB9EE1910E9F4393139FDB8C92
S1133DC0209F6C913B9F40954B9F56E2629FEE97DC
S1133DD08D9FB49701FF498103FF948104FF908173
S1133DE005FF938106FF958108FF698109FF6A81B8
S1133DF00AFF96810BFF7B810CFF43810DFF7C81C1
S1133E000EFF44810FFF5E8110FF4F8211FF50822D
S1133E1012FF518213FF528214FF538215FF548202
S1133E2016FF558217FF568218FF578219FF5882D2
S1133E301AFF46811BFF47811CFF83811DFF81817F
S1133E401EFF84811FFF488120FF978121FF60822C
S1133E5022FF618223FF628224FF638225FF648242
S1133E6026FF658227FF668228FF678229FF688212
S1133E702AFF69822BFF6A822CFF6B822DFF6C82E2
S1133E802EFF6D822FFF6E8230FF6F8231FF7082B2
S1133E9032FF718233FF728234FF738235FF748282
S1133EA036FF758237FF768238FF778239FF788252
S1133EB03AFF79823BFF6D813CFF5F813DFF6E815C
S1133EC03EFF4F813FFF518140FF4D8141FF818281
S1133ED042FF828243FF838244FF848245FF8582BE
S1133EE046FF868247FF878248FF888249FF89828E
S1133EF04AFF8A824BFF8B824CFF8C824DFF8D825E
S1133F004EFF8E824FFF8F8250FF908251FF91822D
S1133F1052FF928253FF938254FF948255FF9582FD
S1133F2056FF968257FF978258FF988259FF9982CD
S1133F305AFF9A825BFF6F815CFF62815DFF708133
S1133F405EFF608161FFA10062FFA20063FFA30026
S1133F5064FFA40065FFA50066FFA60067FFA70035
S1133F6068FFA80069FFA9006AFFAA006BFFAB0005
S1133F706CFFAC006DFFAD006EFFAE006FFFAF00D5
S1133F8070FFB00071FFB10072FFB20073FFB300A5
S1133F9074FFB40075FFB50076FFB60077FFB70075
S1133FA078FFB80079FFB9007AFFBA007BFFBB0045
S1133FB07CFFBC007DFFBD007EFFBE007FFFBF0015
S1133FC080FFC00081FFC10082FFC20083FFC300E5
S1133FD084FFC40085FFC50086FFC60087FFC700B5
S1133FE088FFC80089FFC9008AFFCA008BFFCB0085
S1133FF08CFFCC008DFFCD008EFFCE008FFFCF0055
S113400090FFD00091FFD10092FFD20093FFD30024
S113401094FFD40095FFD50096FFD60097FFD700F4
S113402098FFD80099FFD9009AFFDA009BFFDB00C4
S11340309CFFDC009DFFDD009EFFDE009FFFDF0094
S1134040E0FF9181E1FF9281E2FFCA81E3FF5081A9
S1134050E5FF8F810000000011241FBECFEFD1E2E5
S1134060DEBFCDBF00E00CBF12E0A0E0B2E0E8E9A3
S1134070FEE900E00BBF02C007900D92AA3FB10712
S1134080D9F729E0AAEFB2E001C01D92A436B20725
S1134090E1F70E9431470C944A4F0C9400008130A0
S11340A019F40C94DB49089581E00895813019F4E2
S11340B00C941249089581E008950F931F93FB0116
S11340C0813039F4BA01A901CF0198010E94DE4977
S11340D001C084E01F910F9108950F931F93FB017A
S11340E0813039F4BA01A901CF0198010E94284A0C
S11340F001C084E01F910F910895FC016381862F14
S113410090E0A0E0B0E0BA2FA92F982F8827228151
S1134110822BBA2FA92F982F88272181822BBA2F7F
S1134120A92F982F88272081BC01CD01622B0895E7
S11341300F93FC01278130E040E050E060E070E044
S113414080E090E008E00E94054CA6812A2B0E94A2
S1134150054CA5812A2B0E94054CA4812A2B0E9480
S1134160054CA3812A2B0E94054CA2812A2B0E9474
S1134170054CA1812A2B0E94054CE0812E2B0F9126
S113418008950F931F93CF93DF93FC01D22FC32F76
S1134190B42FA52F862F972F0083202F312F4D2F3B
S11341A05C2F6B2F7A2F08E00E94204C21830E9401
S11341B0204C22830E94204C23830E94204C248381
S11341C00E94204C25830E94204C26830E94204C70
S11341D02783DF91CF911F910F91089541155105C8
S11341E051F0A62FB72FFC01480F591F9D919193B1
S11341F0E417F507D9F70895FC01480F591F619397
S1134200E417F507E1F70895DC01E62FF72F8D9108
S1134210219190E0821B91094150510911F00097BE
S1134220B1F308950F931F93FC019A01AB0122503F
S113423031094109510987A190A5A1A5B2A5029709
S1134240A109B109281739074A075B0768F4A18552
S1134250B2850E94FB4B03AD14AD25AD36AD600FA6
S1134260711F821F931F03C060E070E0CB011F9198
S11342700F910895FC019C01255F3F4F80E080FB76
S1134280879587F99191890FE217F307C1F708958C
S1134290CF93DF93DC0111966C91119770E06F5FFF
S11342A07F4F660F771F62957295707F7627607FC8
S11342B076276115710519F180E090E020E030E087
S11342C0D0E0C0E82230310591F0AC0141705527AF
S11342D080FF02C04D2F5C2FFD01E20FF31FE08130
S11342E0969587958E0F911D840F951F02C023E02C
S11342F030E02F5F3F4F2617370720F302C080E0DE
S113430090E0DF91CF9108950F931F93CF93DF93A4
S11343108C01EB01DC011D968D919C911E97C49636
S1134320ECDE6E837F8388879987F801858596857F
S1134330C896FEDE2A873B874C875D876E877F871A
S1134340888B998BD8011D96ED91FC911E9781A1C4
S113435082708D831E8A1F8A188E198EDF91CF91E9
S11343601F910F910895EF92FF921F93CF93DF93C4
S1134370EC01688179816115710509F460C09B01C4
S11343802F5F3F4FF90131979081903218F09A33A3
S1134390B9F702C09A33C9F4FB01808190ED980FFC
S11343A09A3008F04FC06E5F7F4F2617370709F029
S11343B04CC090E0AC0140535109423051050CF01F
S11343C047C039832883CA0145C0FB0180818F32ED
S11343D091F50F2EFEE6EF2EF2E0FF2EF02D40E0D9
S11343E050E0F701A191B1917F01FB0131969D91BC
S11343F01E2F8F2F21913FE9390F3A3108F4905243
S11344003FE9320F3A3108F42052992319F0291761
S113441071F304C02F3241F0203230F04F5F5F4F10
S113442042305105F1F607C04230510524F4188397
S11344308983CA010FC080915C0590E00BC08FEFA7
S11344409FEF08C08FEF9FEF05C08FEF9FEF02C073
S11344508FEF9FEFDF91CF911F91FF90EF90089521
S11344608F929F92AF92BF92EF92FF920F931F93FE
S1134470CF93DF93FC012381222309F43EC0EC0196
S11344807C01F7E4EF0EF11CFC01ED5BFF4F208192
S113449031814281538101E010E0B70189811DDE41
S11344A081112DC01B82FE01ED5BFF4F0081118144
S11344B0228133818BA59CA5ADA5BEA58BA89CA804
S11344C0ADA8BEA8B901A801481959096A097B0910
S11344D0481759076A077B07A0F46A81623099F488
S11344E0A9019801280F391F4A1F5B1F01E010E042
S11344F0B7018981F2DD80E007C080E005C081E07A
S113450003C080E001C080E0DF91CF911F910F9143
S1134510FF90EF90BF90AF909F908F9008958F92EF
S11345209F92AF92BF92FF920F931F93CF93DF930B
S1134530EC014A015B01FC01ED5BFF4F808191813D
S1134540A281B38184179507A607B707E9F0CE01C6
S113455087DFF82E811119C001E010E0A501940154
S1134560BE01695B7F4F8981A8DD882331F0FF2478
S1134570F39488248A94982C5401CD5BDF4F88826D
S11345809982AA82BB8201C0F12C8F2DDF91CF9139
S11345901F910F91FF90BF90AF909F908F900895BF
S11345A02F923F924F925F926F927F928F929F923F
S11345B0AF92BF92CF92DF92EF92FF920F931F932D
S11345C0CF93DF93CDB7DEB72A970FB6F894DEBF4B
S11345D00FBECDBF9A8789870D831E832F833887AB
S11345E02A013B0182E0481A510861087108E985F3
S11345F0FA8587A190A5A1A5B2A50297A109B10941
S1134600481659066A067B0618F0412C512C3201D3
S113461049825A826B827C8273016201812C912CC3
S1134620540129843A84FFE32F0E311C11E0F10177
S113463080819181A281B381B701A601032E3CE060
S113464076956795579547953A95D1F7302D480F4C
S1134650591F6A1F7B1F89859A8561DF81116CC090
S1134660D701C601689412F8B695A79597958795D2
S11346701694D1F79C013170C60187709927F12FE8
S113468001C0FF0F8A95EAF7A985BA8597964D91DF
S11346905D916D917C919A9742505109610971091C
S11346A00F2F01C001E0E985FA85E20FF31FE95BF2
S11346B0FF4F90819023BFEFCB1ADB0AEB0AFB0A72
S11346C0C416D506E606F70610F4000F06C0C12C82
S11346D0D12C760120E032E000E0911117C0EFEF19
S11346E08E1A9E0AAE0ABE0A8D819E81AF81B8855C
S11346F088169906AA06BB0681F469817A818B81A2
S11347009C816E5F7F4F8F4F9F4F1DC0C982DA829D
S1134710EB82FC82812C912C54014C145D046E04B8
S11347207F0471F00111BFCF2F5F3F4F211592E03D
S1134730390708F4B7CF7BCF6FEF7FEFCB0103C00E
S113474060E070E0CB012A960FB6F894DEBF0FBE8E
S1134750CDBFDF91CF911F910F91FF90EF90DF902C
S1134760CF90BF90AF909F908F907F906F905F900D
S11347704F903F902F9008952F923F924F925F92C7
S11347806F927F928F929F92AF92BF92CF92DF925D
S1134790EF92FF920F931F93CF93DF936C01480125
S11347A05901DB01CA010297A109B109F601FF967B
S11347B08C019D010F2EFCE03695279517950795E2
S11347C0FA95D1F7F02D4081518162817381400FB8
S11347D0511F621F731F8C019D01689412F8369556
S11347E02795179507951694D1F7E801D17087702E
S11347F0992711E001C0110F8A95EAF72224239426
S11348003324339400E02A013B018FEF481A580AFD
S1134810680A780AC60183DE811130C001C011E044
S1134820F601EC0FFD1FE95BFF4F9081412F4923F7
S1134830232D302F11F420E030E02E153F0501F137
S1134840F601EC0FFD1FE95BFF4F91279083F60102
S11348502382F1E08F1A9108A108B10891F0110F99
S1134860F9F6219611E0C11592E0D907C0F2B3011F
S1134870A201E0E0CE2FF0E0DF2FC5CF81E001C040
S113488082E0DF91CF911F910F91FF90EF90DF9025
S1134890CF90BF90AF909F908F907F906F905F90DC
S11348A04F903F902F9008958F929F92AF92BF9216
S11348B0CF92DF92EF92FF920F931F93CF93DF93E8
S11348C07C014A015B01CCDD811140C0B501A4012A
S11348D0C701A8DC4B015C01F701ED5BFF4F60836E
S11348E0718382839383670187E4C80ED11C40E0FF
S11348F052E060E070E0C6017FDCF70181859285BB
S1134900892B59F4C0E0D0E018C02196F7018185C5
S11349109285C817D90718F010C0C0E0D0E001E0B4
S113492010E0A50194012C0F3D1F411D511DB6013E
S1134930F7018181D2DB882341F381E0F7012185EE
S113494032852C173D0719F480E001C081E0DF9126
S1134950CF911F910F91FF90EF90DF90CF90BF9078
S1134960AF909F908F900895AF92BF92CF92DF92B5
S11349700F931F93CF93DF93EC012296FC01608188
S113498071816115710579F100E010E0A12C689442
S1134990BB24B7F880E090E00E948846F801E170FB
S11349A0FF2700FF02C0EA2DFB2D980136952795BD
S11349B0AB015527240F351F2E0F3F1F89010170AE
S11349C0112720FF02C00A2D1B2D36952795C72ECF
S11349D0DD242C0D3D1D020F131F69917991611582
S11349E07105C1F602C000E010E0C801DF91CF916B
S11349F01F910F91DF90CF90BF90AF9008950F93C8
S1134A001F93CF93DF93FC01A081B1818D010F5FD0
S1134A101F4F9C91292F30E0913880F0903A68F133
S1134A20905E9D3150F10AC090E8980F9D37E0F0F8
S1134A308F37D0F06FEF7FEFCB0127C0EF01211547
S1134A40310541F064EA73E0C9010E946D469C019E
S1134A50892B31F019830883B90180E090E015C0F7
S1134A606FEF7FEFCB0111C08D010E5F1F4F722FCF
S1134A7066279B01280F311DE1CF11968C91119768
S1134A80803490F66FEF7FEFCB01DF91CF911F91D0
S1134A900F9108952F923F924F925F926F927F925F
S1134AA08F929F92AF92BF92CF92DF92EF92FF923A
S1134AB00F931F93CF93DF93EC016A017B012801CD
S1134AC03901423051056105710508F4D8C08FA140
S1134AD098A5A9A5BAA5481759076A077B0708F03E
S1134AE0D0C08881823009F464C018F4813029F080
S1134AF0CAC0853008F47EC0C6C08A0116950795E1
S1134B001801240E351EC101892F992786954BA9BA
S1134B105CA96DA97EA9480F591F611D711DCE01A5
S1134B20FEDC182F8111CFC04E0187E4880E911C42
S1134B3051013FEFA31AB30AC1019170F401E80FC8
S1134B40F91FC0FE1DC08081282F2F7030E1439EC5
S1134B50C0011124822B808381E08B834BA95CA943
S1134B606DA97EA9C501892F99278695480F591FDC
S1134B70611D711DCE01D3DC882309F48AC085C070
S1134B80408281E08B834BA95CA96DA97EA9C501F4
S1134B90892F99278695480F591F611D711DCE01D4
S1134BA0BEDC882309F483C072C0408281E08B8319
S1134BB08AC0452F562F672F77278BA99CA9ADA9AB
S1134BC0BEA9480F591F6A1F7B1FCE01A8DC182FEE
S1134BD0811179C0FE01E95BFF4FCC0CDD1CE89428
S1134BE0C0F881E0D822EC0DFD1D4082518281E0A5
S1134BF08B8369C08BA99CA9ADA9BEA9689416F83A
S1134C0076956795579547951694D1F7480F591F90
S1134C106A1F7B1FCE0183DC182F811154C0888149
S1134C208430C9F03FE07322C601880F991F880FB2
S1134C30991F8C7F91709E01295B3F4F820F931FB8
S1134C405CDADC01CB0188279927AA27B07F482AA0
S1134C50592A6A2A7B2AFE01E95BFF4FCC0CDD1C32
S1134C60CC0CDD1C8CEFC82281E0D822EC0DFD1D9C
S1134C70408251826282738281E08B8324C012E07D
S1134C8022C012E020C012E01EC0182F1CC0182F32
S1134C901AC031E0B322F401EA0DFB1D689413F845
S1134CA076946794579447941694D1F77ECF81E015
S1134CB0B822F401EA0DFB1D9081907F852D8F7041
S1134CC0492E482A72CF812FDF91CF911F910F91E6
S1134CD0FF90EF90DF90CF90BF90AF909F908F9018
S1134CE07F906F905F904F903F902F9008954F92D8
S1134CF05F926F927F928F929F92AF92BF92CF9268
S1134D00DF92EF92FF920F931F93CF93DF93EC0107
S1134D108E899F89A88DB98D0097A105B10509F4E5
S1134D203EC06A017B014A015B0142E0840E911C92
S1134D30A11CB11C402E512E622E732E2FEFC21ACD
S1134D40D20AE20AF20A82309105A105B10538F0CF
S1134D5095018401081B190B2A0B3B0B04C0042D7D
S1134D60152D262D372DB701A601481B590B6A0BAB
S1134D707B0B888199818EDE811112C08E899F8977
S1134D80A88DB98D0197A109B1098E8B9F8BA88F2E
S1134D90B98F0097A105B105B1F680E001C080E0AC
S1134DA0DF91CF911F910F91FF90EF90DF90CF9003
S1134DB0BF90AF909F908F907F906F905F904F9037
S1134DC008958F929F92AF92BF92CF92DF92EF920B
S1134DD0FF920F931F93CF93DF93FC012581233020
S1134DE039F5EC014681578160857185C288D38885
S1134DF0E488F588C114D104E104F104B1F04A0156
S1134E005B01FFEF8F1A9F0AAF0ABF0A9501840165
S1134E10888199813FDE81110CC081E0C81AD108D4
S1134E20E108F108B501A40151F71D8280E001C039
S1134E3080E0DF91CF911F910F91FF90EF90DF9071
S1134E40CF90BF90AF909F908F900895FB01228FD9
S1134E50338FDC018C91833029F4CA01AA27BB2744
S1134E60848B958B08953F924F925F926F927F92BD
S1134E708F929F92AF92BF92CF92DF92EF92FF9266
S1134E800F931F93CF93DF93423051056105710552
S1134E9008F458C1FC01E080F180F70187A090A4D8
S1134EA0A1A4B2A4481559056A057B0508F04FC1B1
S1134EB04A015B01EC018081823009F457C018F487
S1134EC0813041F049C1833009F476C0843009F45B
S1134ED098C042C1EA01D695C795C40FD51FCE012B
S1134EE0892F99278695F70143A954A965A976A91D
S1134EF0480F591F611D711DC70111DB811131C19B
S1134F003E01FFEF6F1A7F0AD170CE0DDF1DC95B22
S1134F10DF4FC881C301892F99278695F70143A9DB
S1134F2054A965A976A9480F591F611D711DC701B0
S1134F30F6DA81111AC1F301F170EE0EFF1EF701CA
S1134F40E95BFF4F8081D0E0D82B80FE0AC0BE0110
S1134F50729562956F7067277F70672780E090E095
S1134F6027C1BE017F7080E090E022C1452F562FFB
S1134F70672F7727F70183A994A9A5A9B6A9480F94
S1134F80591F6A1F7B1FC701CADA8111F2C0F7E4F7
S1134F90EF0EF11C880C991CE89480F821E0922211
S1134FA0F701E80DF91D618170E0762F6627808195
S1134FB0682B80E090E0FCC0F70183A994A9A5A91F
S1134FC0B6A9689416F876956795579547951694FB
S1134FD0D1F7480F591F6A1F7B1FC701A0DA81113F
S1134FE0CCC0C701895B9F4F880C991C880C991C05
S1134FF0FCEF8F22F1E09F22880D991D7ED89F70CF
S1135000D7C03A84CB84DC840D851E85BF85F8899E
S1135010E989232D3C2D4D2D502F612F7B2F8F2F70
S11350209E2FA0E00E94634C49F04E815F81688509
S11350307985411551056105710549F48D818823F0
S113504009F44FC061E070E080E090E0B1C0240159
S11350503501441A550A660A770A232D3C2D4D2D35
S1135060502F612F7B2F8F2F9E2FAFEF0E94454C27
S113507009E00E94204CB22FA32F142F052FF70113
S11350802185328540E050E06B2F7A2F812F902FBD
S11350900E94C24B8D81823009F086C024153505EB
S11350A04605570508F46DC0421653066406750696
S11350B009F46CC0C501B4016F5F7F4F8F4F9F4FE0
S11350C077C08A899B89AC89BD89481659066A06C6
S11350D07B0638F4C501B4016F5F7F4F8F4F9F4F3C
S11350E067C08E899F89A88DB98D892B8A2B8B2BBC
S11350F009F051C0F70183A994A9A5A9B6A9B501DE
S1135100A401689416F87695679557954795169473
S1135110D1F7480F591F6A1F7B1FC70100DA81119D
S11351203FC0C701895B9F4F880C991C880C991C50
S1135130FCEF8F22F1E09F22880D991D0E947D20B3
S11351409F7736C061E070E080E090E031C061E0BC
S113515070E080E090E02CC061E070E080E090E0DE
S113516027C06FEF7FEFCB0123C06FEF7FEFCB0141
S11351701FC06FEF7FEFCB011BC06FEF7FEFCB0141
S113518017C061E070E080E090E012C06FEF7FEF45
S11351908FEF9FE70DC06FEF7FEF8FEF9FE708C0A2
S11351A06FEF7FEFCB0104C0833009F48ACF99CF2E
S11351B0DF91CF911F910F91FF90EF90DF90CF90EF
S11351C0BF90AF909F908F907F906F905F904F9023
S11351D03F9008954F925F926F927F928F929F9229
S11351E0AF92BF92CF92DF92EF92FF920F931F93F1
S11351F0CF93DF9300D000D0CDB7DEB76C014983E5
S11352005A836B837C83DC010D90BC91A02DBE83FB
S1135210AD83452B462B472BD9F41F964D905D90BB
S11352206D907C905297411451046104710499F17A
S113523097968D919D910D90BC91A02D481659067D
S11352406A067B0660F1412C512C3201439427C03D
S113525049815A816B817C8106DE6230710581054A
S1135260910508F4A1C16F3FBFEF7B078B079B0734
S113527009F49FC1ED81FE8187A090A4A1A4B2A4EA
S1135280681579058A059B0508F4D7C149805A80B9
S11352906B807C8004C0412C512C32014394AD813D
S11352A0BE8153966D917D918D919C915697611518
S11352B071058105910509F4C0C18C91843009F010
S11352C09BC001E010E020E030E0B301A201CD0179
S11352D067D94B015C01DC01CB010197A109B1093C
S11352E08E3F9F4FAF4FBF4F08F067C1EE24E3944A
S11352F0F12C01E010E020E030E0B501A4018D8143
S11353009E813ADA823009F45BC1813009F45DC1CF
S113531029813A814B815C81232B242B252B29F471
S113532092E0D60115969C9381C1F6019581923045
S113533009F06DC1B301A2014F5F5F4F6F4F7F4F03
S113534084169506A606B70609F470C146815781EE
S113535060857185441A550A660A770A428A538A17
S1135360648A758A93E0958352C1F6014689578908
S1135370608D718D411551056105710529F04F5FEF
S11353805F4F6F4F7F4F04C042E050E060E070E039
S1135390D60156964D935D936D937C9359978823CC
S11353A009F4D0C061E070E080E090E046C1F6010D
S11353B086899789A08DB18D892B8A2B8B2B41F4FB
S11353C081E090E0A0E0B0E0868B978BA08FB18F56
S11353D09501840149815A816B817C81C60187DCF6
S11353E08111DBC081E090E0A0E0B0E0F601868BA3
S11353F0978BA08FB18FA6C029813A814B815C81A4
S1135400421653066406750609F048C0530142016A
S11354103FEF831A930AA30AB30AED81FE8187A1A1
S113542090A5A1A5B2A588169906AA06BB0628F0E0
S1135430812C912C5401689481F8B501A401C60112
S113544012DD613071058105910509F4C2C06F3F19
S1135450FFEF7F078F079F0709F4C0C0672B682BF6
S1135460692BB9F0ED81FE8187859089A189B28984
S113547082309105A105B10588F047A150A561A529
S113548072A584179507A607B70740F42C013D01C0
S113549005C081149104A104B104C9F5530142016A
S11354A0FFEF8F1A9F0AAF0ABF0AED81FE8187A121
S11354B090A5A1A5B2A588169906AA06BB0660F018
S11354C0F2E04F1651046104710408F48BC0812C7E
S11354D0912C5401689481F8B501A401C601C3DC80
S11354E0611571058105910591F0613071058105A2
S11354F0910509F47BC06F3F7F4F8F4F9F4F09F495
S11355007AC084149504A604B70451F678C00FEF4A
S11355101FEF9801B501A4018D819E81BBDA811131
S11355203CC089819A81AB81BC810097A105B105FA
S113553049F095018401AC01BD018D819E81AADAF7
S113554081112BC0AD81BE811F968D929D92AD922B
S1135550BC92529753964D915D916D917C91569763
S1135560FD0187A190A5A1A5B2A50297A109B10942
S113557084179507A607B70740F041505109610900
S11355807109438B548B658B768BED81FE8184810D
S113559081608483C501B40150C08130A1F161E010
S11355A070E080E090E049C061E070E080E090E06D
S11355B044C06FEF7FEFCB0140C0C501B4013DC0D3
S11355C061E070E080E090E038C06FEF7FEFCB01E6
S11355D034C061E070E080E090E02FC06FEF7FEFB7
S11355E0CB012BC060E070E0CB0127C061E070E02C
S11355F080E090E022C06FEF7FEFCB011EC060E03F
S113560070E0CB011AC06FEF7FEFCB0116C0498168
S11356105A816B817C814F5F5F4F6F4F7F4F841640
S11356209506A606B70609F0C2CE9FCE882309F4D4
S113563089CF61E070E080E090E026960FB6F894A0
S1135640DEBF0FBECDBFDF91CF911F910F91FF90B1
S1135650EF90DF90CF90BF90AF909F908F907F900E
S11356606F905F904F9008954F925F926F927F92E8
S11356708F929F92AF92BF92CF92DF92EF92FF925E
S11356800F931F93CF93DF938C016A017B01FC017D
S1135690C081D1818881843029F080E090E0A0E24B
S11356A0B0E004C080E090E0A0E0B0E1C816D90604
S11356B0EA06FB0608F0B2C0D701C6018F7199272C
S11356C0AA27BB27892B8A2B8B2B09F0A9C0F801A9
S11356D0C6A2D7A2E0A6F1A686809780A084B18452
S11356E081149104A104B10461F58881833048F0E8
S11356F08FA998ADA9ADBAAD15820097A105B105E2
S1135700F1F48F819885A0E0B0E0B701A601689418
S113571014F876956795579547951694D1F74817D9
S113572059076A077B0708F07DC08FA998ADA9AD1A
S1135730BAADF80186A797A7A0ABB1AB44C04C01A2
S11357405D0149845A84612C712C032E39E0440C88
S1135750551C661C771C3A95D1F7302DC414D5041A
S1135760E604F70430F1B501A401C8017CDB4B0168
S11357705C016F3F7F4F8F4F9F4F09F455C082E00C
S113578088169104A104B10408F450C08FA198A50F
S1135790A9A5BAA588169906AA06BB0608F048C0AA
S11357A0C418D508E608F708C414D504E604F704B9
S11357B0D0F6B501A401CE010E941221F80166A71A
S11357C077A780AB91ABF80182A693A6A4A6B5A651
S11357D086A597A5A0A9B1A90097A105B10551F186
S11357E0B701A601032E39E076956795579547953D
S11357F03A95D1F7302D840F951FA61FB71F86A7A2
S113580097A7A0ABB1ABC95BDF4FF1E0DF22CC0EB1
S1135810DD1EF801D3AAC2AA80E00DC082E00BC04D
S113582082E009C082E007C081E005C082E003C0D5
S113583082E001C082E0DF91CF911F910F91FF9030
S1135840EF90DF90CF90BF90AF909F908F907F901C
S11358506F905F904F9008952F923F924F925F9276
S11358606F927F928F929F92AF92BF92CF92DF926C
S1135870EF92FF920F931F93CF93DF9300D000D04A
S1135880CDB7DEB71C016A017B0128013901423022
S113589051056105710508F41BC1DC010D90BC9133
S11358A0A02DBE83AD8397968D919D910D90BC9153
S11358B0A02D481759076A077B0708F00BC141144C
S11358C0510461047104A1F0ED81FE818081843072
S11358D029F4D10115968C91823051F00FEF1FEF0E
S11358E09801B301A2018D819E81D4D8811105C193
S11358F0C982DA82EB82FC82B701A601C101B3DA64
S11359004B015C01611571058105910509F470C0B5
S1135910613071058105910509F4DEC06F3F7F4F49
S11359208F4F9F4F09F4DAC0AD81BE818C918430D2
S113593049F000E010E09801B701A601CD01AAD812
S11359408111DBC0ED81FE814389548965897689A3
S113595087A190A5A1A5B2A50297A109B1094817ED
S113596059076A077B0758F44F5F5F4F6F4F7F4FAC
S1135970438B548B658B768B848181608483BFEFEA
S1135980CB1ADB0AEB0AFB0A8C149D04AE04BF0499
S113599009F1ED81FE8180818430C1F49701860193
S11359A089819A81AB81BC81081B190B2A0B3B0BA3
S11359B0E12CF12CAC01BD01CF010E94BC2381116B
S11359C09CC089829A82AB82BC8204C089829A82FA
S11359D0AB82BC8275016401ED81FE8187A190A533
S11359E0A1A5B2A588169906AA06BB0608F484CF19
S11359F0AD81BE818C91843009F072C04114510490
S1135A006104710421F4F101158280E076C0D101B2
S1135A1015968C911597811139C01696CD90DD900D
S1135A20ED90FC9019974C145D046E047F0449F1C9
S1135A30B701A601C10117DA62307105810591052C
S1135A4008F450C06F3FBFEF7B078B079B0709F437
S1135A504BC0970186010F5F1F4F2F4F3F4F6017B9
S1135A6071078207930741F46B017C0146165706C0
S1135A7068067906E9F605C04C145D046E047F04DB
S1135A80A9F582E0F101858380E037C0833081F598
S1135A90D10116964D915D916D917C9119974416A3
S1135AA055066606770630F152968D919D910D90BC
S1135AB0BC91A02D840F951FA61FB71F84159505B3
S1135AC0A605B705C8F082E0F101858380E015C022
S1135AD082E013C082E011C082E00FC081E00DC0FB
S1135AE080E00BC082E009C081E007C080E005C00F
S1135AF080E003C080E001C080E026960FB6F894F1
S1135B00DEBF0FBECDBFDF91CF911F910F91FF90EC
S1135B10EF90DF90CF90BF90AF909F908F907F9049
S1135B206F905F904F903F902F9008954F925F92A7
S1135B306F927F92AF92BF92CF92DF92EF92FF92D9
S1135B400F931F93CF93DF93FC01C081D181C6A033
S1135B50D7A0E0A4F1A480E2C80ED11CE11CF11C82
S1135B608881843029F080E090E0A0E2B0E004C0B5
S1135B7080E090E0A0E0B0E1C816D906EA06FB0692
S1135B8030F016A617A610AA11AA84E0CBC086A5E9
S1135B9097A5A0A9B1A90097A105B10509F4B5C0BD
S1135BA08B015F01B701A601517066277727452B4A
S1135BB0462B472B09F099C00196A11DB11D86A75C
S1135BC097A7A0ABB1AB42A553A564A575A5411594
S1135BD0510561057105D1F48F819885A0E0B0E08D
S1135BE0B701A601689414F876956795579547957B
S1135BF01694D1F7481759076A077B0708F475C04C
S1135C0016A617A610AA11AA84E08CC089859A85C5
S1135C100197A0E0B0E026013701032E39E0769425
S1135C206794579447943A95D1F7302D8421952160
S1135C30A621B721892B8A2B8B2B09F056C0CF01C3
S1135C4012D92B013C01623071058105910508F4DC
S1135C505EC08FEF481658066806780609F459C0E6
S1135C608FA198A5A9A5BAA5481659066A067B0668
S1135C7068F1012B39F4F50116A617A610AA11AA8A
S1135C8084E050C0F50142A553A564A575A5C501DE
S1135C90A1DA2B013C016115710581059105D9F14A
S1135CA06130710581059105C1F18FEF48165806E1
S1135CB068067806A1F1B301A201CE010E94542422
S1135CC081112FC0F501858184608583F50142A689
S1135CD053A664A675A6B301A201CE010E941221A7
S1135CE0F50166A777A780AB91ABF501C6A2D7A251
